:020000020000FC
:02000000FFC13E
:0201A0008FC10D
:0200380060C2A4
:0200BC003FC241
:100200000000000000009A2C8A07FF491F1FC20D42
:080210008D3C1646FAA5210001
:1004000070E010E060E040E0DED0CFEFC0933D0050
:10041000CFE3C0933E000FEF0093410600934406E4
:100420002ED002D03ED0FFCF0F9300E7009361069D
:100430000093640607E000936E060FEF0093260911
:1004400000E00093270907E00093000903E7009309
:10045000010900E000932C0900932D0900932A095B
:1004600000932B09009328090093290900E40093C5
:10047000760600937506009374060F9108950F9306
:1004800002E00093A90604E00093AA060093A206E6
:1004900002E00093B20603E00093A20078940F916B
:1004A00008950F9305E30093260A0CE00093270AB2
:1004B00007E00093000A01E00093060A0F910895F7
:1004C0002F9320913F002F930F9300E0009320087B
:1004D0000CE90093260800E00093270807E000934A
:1004E000000802E00093060800E00093A9060F91BF
:1004F0002F9120933F002F9118952F9320913F002B
:100500002F930F9300E00093000800E0009306088B
:100510000091A80602FB36F0139543954095409351
:100520004406409502E00093A90601E00093AC0662
:100530000F912F9120933F002F911895EF93FF93E8
:100540002F9320913F002F930F93103031F01130F3
:1005500039F0123041F0133049F0E0E0F2E008C029
:10056000E6E0F2E005C0ECE0F2E002C0E2E1F2E039
:1005700060FB0EF4339608E000930909059100939F
:100580002C0900E000932D09059100932A0900E051
:1005900000932B0905910093280900E00093290995
:1005A0006095143008F409F410E000E00093200A8C
:1005B00001E000930C0A0F912F9120933F002F919F
:1005C000FF91EF9118950F9302E000935000009176
:1005D000510001FB0EF0DEF708ED0093340001E05E
:1005E0000093400008ED00933400709341000F9198
:0205F00008956C
:00000001FF
